{
  "_format": "hh-sol-artifact-1",
  "contractName": "IP_Deposit",
  "sourceName": "contracts/IP_Deposit.sol",
  "abi": [
    {
      "inputs": [],
      "stateMutability": "nonpayable",
      "type": "constructor"
    },
    {
      "anonymous": false,
      "inputs": [
        {
          "indexed": true,
          "internalType": "uint256",
          "name": "ipAmount",
          "type": "uint256"
        },
        {
          "indexed": true,
          "internalType": "bytes32",
          "name": "tweetHash",
          "type": "bytes32"
        },
        {
          "indexed": true,
          "internalType": "address",
          "name": "depositor",
          "type": "address"
        },
        {
          "indexed": false,
          "internalType": "address",
          "name": "recipient",
          "type": "address"
        },
        {
          "indexed": false,
          "internalType": "string",
          "name": "validation",
          "type": "string"
        },
        {
          "indexed": false,
          "internalType": "bytes",
          "name": "proof",
          "type": "bytes"
        },
        {
          "indexed": false,
          "internalType": "address",
          "name": "collectionAddress",
          "type": "address"
        },
        {
          "components": [
            {
              "internalType": "string",
              "name": "handle",
              "type": "string"
            },
            {
              "internalType": "uint256",
              "name": "mintPrice",
              "type": "uint256"
            },
            {
              "internalType": "uint256",
              "name": "maxSupply",
              "type": "uint256"
            },
            {
              "internalType": "address",
              "name": "royaltyReceiver",
              "type": "address"
            },
            {
              "internalType": "uint96",
              "name": "royaltyBP",
              "type": "uint96"
            }
          ],
          "indexed": false,
          "internalType": "struct IP_Deposit.CollectionConfig",
          "name": "collectionConfig",
          "type": "tuple"
        },
        {
          "indexed": false,
          "internalType": "bytes32",
          "name": "tweetHashOut",
          "type": "bytes32"
        },
        {
          "components": [
            {
              "internalType": "uint256",
              "name": "defaultMintingFee",
              "type": "uint256"
            },
            {
              "internalType": "address",
              "name": "currency",
              "type": "address"
            },
            {
              "internalType": "address",
              "name": "royaltyPolicy",
              "type": "address"
            },
            {
              "internalType": "bool",
              "name": "transferable",
              "type": "bool"
            },
            {
              "internalType": "uint256",
              "name": "expiration",
              "type": "uint256"
            },
            {
              "internalType": "bool",
              "name": "commercialUse",
              "type": "bool"
            },
            {
              "internalType": "bool",
              "name": "commercialAttribution",
              "type": "bool"
            },
            {
              "internalType": "uint256",
              "name": "commercialRevShare",
              "type": "uint256"
            },
            {
              "internalType": "uint256",
              "name": "commercialRevCeiling",
              "type": "uint256"
            },
            {
              "internalType": "bool",
              "name": "derivativesAllowed",
              "type": "bool"
            },
            {
              "internalType": "bool",
              "name": "derivativesAttribution",
              "type": "bool"
            },
            {
              "internalType": "bool",
              "name": "derivativesApproval",
              "type": "bool"
            },
            {
              "internalType": "bool",
              "name": "derivativesReciprocal",
              "type": "bool"
            },
            {
              "internalType": "uint256",
              "name": "derivativeRevCeiling",
              "type": "uint256"
            },
            {
              "internalType": "string",
              "name": "uri",
              "type": "string"
            }
          ],
          "indexed": false,
          "internalType": "struct IP_Deposit.LicenseTermsConfig",
          "name": "licenseTermsConfig",
          "type": "tuple"
        },
        {
          "components": [
            {
              "internalType": "uint256",
              "name": "licenseTermsId",
              "type": "uint256"
            },
            {
              "internalType": "address",
              "name": "licensorIpId",
              "type": "address"
            },
            {
              "internalType": "address",
              "name": "receiver",
              "type": "address"
            },
            {
              "internalType": "uint256",
              "name": "amount",
              "type": "uint256"
            },
            {
              "internalType": "uint256",
              "name": "maxMintingFee",
              "type": "uint256"
            },
            {
              "internalType": "uint256",
              "name": "maxRevenueShare",
              "type": "uint256"
            }
          ],
          "indexed": false,
          "internalType": "struct IP_Deposit.LicenseMintParams",
          "name": "licenseMintParams",
          "type": "tuple"
        },
        {
          "components": [
            {
              "internalType": "string",
              "name": "name",
              "type": "string"
            },
            {
              "internalType": "address",
              "name": "wallet",
              "type": "address"
            }
          ],
          "indexed": false,
          "internalType": "struct IP_Deposit.CoCreator[]",
          "name": "coCreators",
          "type": "tuple[]"
        }
      ],
      "name": "DepositProcessed",
      "type": "event"
    },
    {
      "anonymous": false,
      "inputs": [
        {
          "indexed": true,
          "internalType": "bytes32",
          "name": "tweetHash",
          "type": "bytes32"
        },
        {
          "indexed": false,
          "internalType": "string",
          "name": "newValidation",
          "type": "string"
        }
      ],
      "name": "ValidationUpdated",
      "type": "event"
    },
    {
      "inputs": [
        {
          "internalType": "address",
          "name": "recipient",
          "type": "address"
        },
        {
          "internalType": "string",
          "name": "validation",
          "type": "string"
        },
        {
          "internalType": "bytes",
          "name": "proof",
          "type": "bytes"
        },
        {
          "internalType": "address",
          "name": "collectionAddress",
          "type": "address"
        },
        {
          "components": [
            {
              "internalType": "string",
              "name": "handle",
              "type": "string"
            },
            {
              "internalType": "uint256",
              "name": "mintPrice",
              "type": "uint256"
            },
            {
              "internalType": "uint256",
              "name": "maxSupply",
              "type": "uint256"
            },
            {
              "internalType": "address",
              "name": "royaltyReceiver",
              "type": "address"
            },
            {
              "internalType": "uint96",
              "name": "royaltyBP",
              "type": "uint96"
            }
          ],
          "internalType": "struct IP_Deposit.CollectionConfig",
          "name": "collectionConfig",
          "type": "tuple"
        },
        {
          "internalType": "bytes32",
          "name": "tweetHash",
          "type": "bytes32"
        },
        {
          "components": [
            {
              "internalType": "uint256",
              "name": "defaultMintingFee",
              "type": "uint256"
            },
            {
              "internalType": "address",
              "name": "currency",
              "type": "address"
            },
            {
              "internalType": "address",
              "name": "royaltyPolicy",
              "type": "address"
            },
            {
              "internalType": "bool",
              "name": "transferable",
              "type": "bool"
            },
            {
              "internalType": "uint256",
              "name": "expiration",
              "type": "uint256"
            },
            {
              "internalType": "bool",
              "name": "commercialUse",
              "type": "bool"
            },
            {
              "internalType": "bool",
              "name": "commercialAttribution",
              "type": "bool"
            },
            {
              "internalType": "uint256",
              "name": "commercialRevShare",
              "type": "uint256"
            },
            {
              "internalType": "uint256",
              "name": "commercialRevCeiling",
              "type": "uint256"
            },
            {
              "internalType": "bool",
              "name": "derivativesAllowed",
              "type": "bool"
            },
            {
              "internalType": "bool",
              "name": "derivativesAttribution",
              "type": "bool"
            },
            {
              "internalType": "bool",
              "name": "derivativesApproval",
              "type": "bool"
            },
            {
              "internalType": "bool",
              "name": "derivativesReciprocal",
              "type": "bool"
            },
            {
              "internalType": "uint256",
              "name": "derivativeRevCeiling",
              "type": "uint256"
            },
            {
              "internalType": "string",
              "name": "uri",
              "type": "string"
            }
          ],
          "internalType": "struct IP_Deposit.LicenseTermsConfig",
          "name": "licenseTermsConfig",
          "type": "tuple"
        },
        {
          "components": [
            {
              "internalType": "uint256",
              "name": "licenseTermsId",
              "type": "uint256"
            },
            {
              "internalType": "address",
              "name": "licensorIpId",
              "type": "address"
            },
            {
              "internalType": "address",
              "name": "receiver",
              "type": "address"
            },
            {
              "internalType": "uint256",
              "name": "amount",
              "type": "uint256"
            },
            {
              "internalType": "uint256",
              "name": "maxMintingFee",
              "type": "uint256"
            },
            {
              "internalType": "uint256",
              "name": "maxRevenueShare",
              "type": "uint256"
            }
          ],
          "internalType": "struct IP_Deposit.LicenseMintParams",
          "name": "licenseMintParams",
          "type": "tuple"
        },
        {
          "components": [
            {
              "internalType": "string",
              "name": "name",
              "type": "string"
            },
            {
              "internalType": "address",
              "name": "wallet",
              "type": "address"
            }
          ],
          "internalType": "struct IP_Deposit.CoCreator[]",
          "name": "coCreators",
          "type": "tuple[]"
        }
      ],
      "name": "depositIP",
      "outputs": [],
      "stateMutability": "payable",
      "type": "function"
    },
    {
      "inputs": [
        {
          "internalType": "bytes32",
          "name": "tweetHash",
          "type": "bytes32"
        }
      ],
      "name": "getByTweetHash",
      "outputs": [
        {
          "components": [
            {
              "internalType": "address",
              "name": "depositor",
              "type": "address"
            },
            {
              "internalType": "address",
              "name": "recipient",
              "type": "address"
            },
            {
              "internalType": "string",
              "name": "validation",
              "type": "string"
            },
            {
              "internalType": "bytes",
              "name": "proof",
              "type": "bytes"
            },
            {
              "internalType": "address",
              "name": "collectionAddress",
              "type": "address"
            },
            {
              "components": [
                {
                  "internalType": "string",
                  "name": "handle",
                  "type": "string"
                },
                {
                  "internalType": "uint256",
                  "name": "mintPrice",
                  "type": "uint256"
                },
                {
                  "internalType": "uint256",
                  "name": "maxSupply",
                  "type": "uint256"
                },
                {
                  "internalType": "address",
                  "name": "royaltyReceiver",
                  "type": "address"
                },
                {
                  "internalType": "uint96",
                  "name": "royaltyBP",
                  "type": "uint96"
                }
              ],
              "internalType": "struct IP_Deposit.CollectionConfig",
              "name": "collectionConfig",
              "type": "tuple"
            },
            {
              "internalType": "bytes32",
              "name": "tweetHash",
              "type": "bytes32"
            },
            {
              "components": [
                {
                  "internalType": "uint256",
                  "name": "defaultMintingFee",
                  "type": "uint256"
                },
                {
                  "internalType": "address",
                  "name": "currency",
                  "type": "address"
                },
                {
                  "internalType": "address",
                  "name": "royaltyPolicy",
                  "type": "address"
                },
                {
                  "internalType": "bool",
                  "name": "transferable",
                  "type": "bool"
                },
                {
                  "internalType": "uint256",
                  "name": "expiration",
                  "type": "uint256"
                },
                {
                  "internalType": "bool",
                  "name": "commercialUse",
                  "type": "bool"
                },
                {
                  "internalType": "bool",
                  "name": "commercialAttribution",
                  "type": "bool"
                },
                {
                  "internalType": "uint256",
                  "name": "commercialRevShare",
                  "type": "uint256"
                },
                {
                  "internalType": "uint256",
                  "name": "commercialRevCeiling",
                  "type": "uint256"
                },
                {
                  "internalType": "bool",
                  "name": "derivativesAllowed",
                  "type": "bool"
                },
                {
                  "internalType": "bool",
                  "name": "derivativesAttribution",
                  "type": "bool"
                },
                {
                  "internalType": "bool",
                  "name": "derivativesApproval",
                  "type": "bool"
                },
                {
                  "internalType": "bool",
                  "name": "derivativesReciprocal",
                  "type": "bool"
                },
                {
                  "internalType": "uint256",
                  "name": "derivativeRevCeiling",
                  "type": "uint256"
                },
                {
                  "internalType": "string",
                  "name": "uri",
                  "type": "string"
                }
              ],
              "internalType": "struct IP_Deposit.LicenseTermsConfig",
              "name": "licenseTermsConfig",
              "type": "tuple"
            },
            {
              "components": [
                {
                  "internalType": "uint256",
                  "name": "licenseTermsId",
                  "type": "uint256"
                },
                {
                  "internalType": "address",
                  "name": "licensorIpId",
                  "type": "address"
                },
                {
                  "internalType": "address",
                  "name": "receiver",
                  "type": "address"
                },
                {
                  "internalType": "uint256",
                  "name": "amount",
                  "type": "uint256"
                },
                {
                  "internalType": "uint256",
                  "name": "maxMintingFee",
                  "type": "uint256"
                },
                {
                  "internalType": "uint256",
                  "name": "maxRevenueShare",
                  "type": "uint256"
                }
              ],
              "internalType": "struct IP_Deposit.LicenseMintParams",
              "name": "licenseMintParams",
              "type": "tuple"
            },
            {
              "components": [
                {
                  "internalType": "string",
                  "name": "name",
                  "type": "string"
                },
                {
                  "internalType": "address",
                  "name": "wallet",
                  "type": "address"
                }
              ],
              "internalType": "struct IP_Deposit.CoCreator[]",
              "name": "coCreators",
              "type": "tuple[]"
            }
          ],
          "internalType": "struct IP_Deposit.DepositRecord",
          "name": "",
          "type": "tuple"
        }
      ],
      "stateMutability": "view",
      "type": "function"
    },
    {
      "inputs": [],
      "name": "owner",
      "outputs": [
        {
          "internalType": "address",
          "name": "",
          "type": "address"
        }
      ],
      "stateMutability": "view",
      "type": "function"
    },
    {
      "inputs": [
        {
          "internalType": "bytes32",
          "name": "tweetHash",
          "type": "bytes32"
        },
        {
          "internalType": "string",
          "name": "newValidation",
          "type": "string"
        }
      ],
      "name": "updateValidation",
      "outputs": [],
      "stateMutability": "nonpayable",
      "type": "function"
    },
    {
      "inputs": [],
      "name": "withdrawFunds",
      "outputs": [],
      "stateMutability": "nonpayable",
      "type": "function"
    },
    {
      "stateMutability": "payable",
      "type": "receive"
    }
  ],
  "bytecode": "0x6080604052346200002657620000146200009a565b604051611ff7620000aa8239611ff790f35b600080fd5b620000419062000044906001600160a01b031682565b90565b6001600160a01b031690565b62000041906200002b565b620000419062000050565b906200007a6200004162000096926200005b565b82546001600160a01b0319166001600160a01b03919091161790565b9055565b620000a733600062000066565b56fe6080604052600436101561001b575b361561001957600080fd5b005b60003560e01c806324600fc31461006b57806347934a07146100665780638da5cb5b14610061578063b07d65ea1461005c5763b4cd21b40361000e576106a7565b6102ff565b610185565b610121565b610080565b600091031261007b57565b600080fd5b3461007b57610090366004610070565b6100986108e7565b604051005b0390f35b805b0361007b57565b905035906100b7826100a1565b565b909182601f8301121561007b578135916001600160401b03831161007b57602001926001830284011161007b57565b91909160408184031261007b576100ff83826100aa565b9260208201356001600160401b03811161007b5761011d92016100b9565b9091565b3461007b576100986101343660046100e8565b91610c0c565b61014f916008021c5b6001600160a01b031690565b90565b9061014f915461013a565b61014f600080610152565b61017190610143565b9052565b6020810192916100b79190610168565b3461007b57610195366004610070565b61009d6101a061015d565b60405191829182610175565b6100a381610143565b905035906100b7826101ac565b908160a091031261007b5790565b90816101e091031261007b5790565b908160c091031261007b5790565b909182601f8301121561007b578135916001600160401b03831161007b57602001926020830284011161007b57565b906101c08282031261007b5761023281836101b5565b9260208301356001600160401b03811161007b57826102529185016100b9565b92909360408101356001600160401b03811161007b57826102749183016100b9565b92909361028482606085016101b5565b9260808101356001600160401b03811161007b57836102a49183016101c2565b926102b28160a084016100aa565b9260c08301356001600160401b03811161007b57826102d29185016101d0565b926102e08360e083016101df565b926101a08201356001600160401b03811161007b5761011d92016101ed565b61009861030d36600461021c565b9a9990999891989792979693969594956116c6565b9060208282031261007b5761014f916100aa565b60005b8381106103495750506000910152565b8181015183820152602001610339565b61037a61038360209361038d9361036e815190565b80835293849260200190565b95869101610336565b601f01601f191690565b0190565b9061014f906080806103b260a0840160008701518582036000870152610359565b946103c260208201516020860152565b6103d160408201516040860152565b6103e360608201516060860190610168565b01516001600160601b0316910152565b8051825261014f916101e08101916101c09061041760208201516020850190610168565b61042960408201516040850190610168565b60608181015115159084015261044460808201516080850152565b60a08181015115159084015260c08181015115159084015261046b60e082015160e0850152565b61047c610100820151610100850152565b610120818101511515908401526101408181015115159084015261016081810151151590840152610180818101511515908401526104c16101a08201516101a0850152565b0151906101c0818403910152610359565b805182526100b7919060a09081906104f260208201516020860190610168565b61050460408201516040860190610168565b61051360608201516060860152565b61052260808201516080860152565b0151910152565b9061014f9060208061054a6040840160008701518582036000870152610359565b940151910190610168565b9061014f91610529565b9061057561056b835190565b8083529160200190565b90816105876020830284019460200190565b926000915b83831061059b57505050505090565b909192939460206105be6105b783856001950387528951610555565b9760200190565b930193019193929061058c565b61014f9161012061067061064f61062b6106196101e086016105f560008901516000890190610168565b61060760208901516020890190610168565b60408801518782036040890152610359565b60608701518682036060880152610359565b61063d60808701516080870190610168565b60a086015185820360a0870152610391565b61065e60c086015160c0860152565b60e085015184820360e08601526103f3565b926106856101008201516101008501906104d2565b0151906101c081840391015261055f565b602080825261014f929101906105cb565b3461007b5761009d6106c26106bd366004610322565b611f8f565b60405191829182610696565b61014f90610143565b61014f90546106ce565b156106e857565b60405162461bcd60e51b815260206004820152600e60248201526d139bdd08185d5d1a1bdc9a5e995960921b6044820152606490fd5b6107433361073d61073761073260006106d7565b610143565b91610143565b146106e1565b6100b7610895565b61014f90610143906001600160a01b031682565b61014f9061074b565b61014f9061075f565b61014f61014f61014f9290565b1561078557565b60405162461bcd60e51b81526020600482015260086024820152674e6f2066756e647360c01b6044820152606490fd5b634e487b7160e01b600052604160045260246000fd5b90601f01601f191681019081106001600160401b038211176107ec57604052565b6107b5565b906100b76107fe60405190565b92836107cb565b6001600160401b0381116107ec57602090601f01601f19160190565b9061083361082e83610805565b6107f1565b918252565b3d15610852576108473d610821565b903d6000602084013e565b606090565b1561085e57565b60405162461bcd60e51b815260206004820152600f60248201526e151c985b9cd9995c8819985a5b1959608a1b6044820152606490fd5b6100b76000806108a430610768565b316108bf816108b96108b585610771565b9190565b1161077e565b6108c8826106d7565b906108d260405190565b90818003925af16108e1610838565b50610857565b6100b761071e565b906100b792916109093361073d61073761073260006106d7565b610b71565b61014361014f61014f9290565b61014f9061090e565b1561092b57565b60405162461bcd60e51b8152602060048201526009602482015268139bdd08199bdd5b9960ba1b6044820152606490fd5b634e487b7160e01b600052600060045260246000fd5b634e487b7160e01b600052602260045260246000fd5b90600160028304921680156109a8575b60208310146109a357565b610972565b91607f1691610998565b9160001960089290920291821b911b5b9181191691161790565b91906109dd61014f6109e593610771565b9083546109b2565b9055565b6100b7916000916109cc565b818110610a00575050565b80610a0e60006001936109e9565b016109f5565b9190601f8111610a2357505050565b610a356100b793600052602060002090565b906020601f840181900483019310610a57575b6020601f9091010401906109f5565b9091508190610a48565b91906001600160401b0382116107ec57610a8582610a7f8554610988565b85610a14565b600090601f8311600114610ac0576109e5929160009183610ab5575b5050600019600883021c1916906002021790565b013590503880610aa1565b601f19831691610ad585600052602060002090565b9260005b818110610b1357509160029391856001969410610afa575b50505002019055565b0135600019601f84166008021c19169055388080610af1565b91936020600181928787013581550195019201610ad9565b906100b79291610a61565b90826000939282370152565b919061038381610b598161038d9560209181520190565b8095610b36565b602080825261014f93910191610b42565b610bab610b946000610b8e84600190600052602052604060002090565b016106d7565b610ba4610737610732600061091b565b1415610924565b610bcd83836002610bc785600190600052602052604060002090565b01610b2b565b90917f59312de486ee184a19a6b54efd1601a3acbc980daad1366a50ba250e76fee4e39192610c07610bfe60405190565b92839283610b60565b0390a2565b906100b792916108ef565b15610c1e57565b60405162461bcd60e51b815260206004820152600c60248201526b04d7573742073656e642049560a41b6044820152606490fd5b15610c5957565b60405162461bcd60e51b8152602060048201526011602482015270125b9d985b1a59081c9958da5c1a595b9d607a1b6044820152606490fd5b15610c9957565b60405162461bcd60e51b8152602060048201526011602482015270105b1c9958591e4819195c1bdcda5d1959607a1b6044820152606490fd5b906001600160a01b03906109c2565b90610cf161014f6109e592610768565b8254610cd2565b91906001600160401b0382116107ec57610d1682610a7f8554610988565b600090601f8311600114610d45576109e5929160009183610ab5575050600019600883021c1916906002021790565b601f19831691610d5a85600052602060002090565b9260005b818110610d7e57509160029391856001969410610afa5750505002019055565b91936020600181928787013581550195019201610d5e565b906100b79291610cf8565b903590601e19368290030182121561007b57018035906001600160401b03821161007b576020019136829003831361007b57565b3561014f816100a1565b90600019906109c2565b90610df961014f6109e592610771565b8254610ddf565b3561014f816101ac565b6001600160601b0381166100a3565b3561014f81610e0a565b906001600160a01b03199060a01b6109c2565b610e4c61014f61014f926001600160601b031690565b6001600160601b031690565b90610e6861014f6109e592610e36565b8254610e23565b6100b79190610ede90608090600390610e9281610e8c8780610da1565b91610b2b565b610eab60018201610ea560208801610dd5565b90610de9565b610ebe60028201610ea560408801610dd5565b610ed6828201610ed060608801610e00565b90610ce1565b019201610e19565b90610e58565b906100b791610e6f565b90610df961014f6109e59290565b8015156100a3565b3561014f81610efc565b9060ff60a01b9060a01b6109c2565b90610f2d61014f6109e592151590565b8254610f0e565b9060ff906109c2565b90610f4d61014f6109e592151590565b8254610f34565b9061ff009060081b6109c2565b90610f7161014f6109e592151590565b8254610f54565b9062ff00009060101b6109c2565b90610f9661014f6109e592151590565b8254610f78565b9063ff0000009060181b6109c2565b90610fbc61014f6109e592151590565b8254610f9d565b6100b79190610e8c90600990610fdc81610ea586610dd5565b610fef60018201610ed060208701610e00565b61100260028201610ed060408701610e00565b61101b6002820161101560608701610f04565b90610f1d565b61102e60038201610ea560808701610dd5565b6110476004820161104160a08701610f04565b90610f3d565b6110606004820161105a60c08701610f04565b90610f61565b61107360058201610ea560e08701610dd5565b61108760068201610ea56101008701610dd5565b61109b600782016110416101208701610f04565b6110af6007820161105a6101408701610f04565b6110c9600782016110c36101608701610f04565b90610f86565b6110e3600782016110dd6101808701610f04565b90610fac565b6110f760088201610ea56101a08701610dd5565b01916101c0810190610da1565b906100b791610fc3565b6100b79190610ea59060a090600590611128818587610dd5565b61113b60018201610ed060208801610e00565b61114e60028201610ed060408801610e00565b61116160038201610ea560608801610dd5565b61117460048201610ea560808801610dd5565b019201610dd5565b906100b79161110e565b634e487b7160e01b600052603260045260246000fd5b903590603e19368290030182121561007b570190565b908210156111c957602061014f920281019061119c565b611186565b80548210156111c9576111e8600291600052602060002090565b91020190600090565b6100b79190610ed09060209060019061120e81610e8c8780610da1565b019201610e00565b9190611225576100b7916111f1565b61095c565b90815491680100000000000000008310156107ec57826112529160016100b7950181556111ce565b90611216565b9035601e19368390030181121561007b5701602081359101916001600160401b03821161007b5736829003831361007b57565b5061014f9060208101906100aa565b5061014f9060208101906101b5565b905035906100b782610e0a565b5061014f9060208101906112a9565b9061014f90608061133d6112eb60a084016112e08780611258565b868303875290610b42565b946113036112fc602083018361128b565b6020860152565b61131a611313604083018361128b565b6040860152565b61133461132a606083018361129a565b6060860190610168565b828101906112b6565b6001600160601b0316910152565b905035906100b782610efc565b5061014f90602081019061134b565b61014f916101e08101916114dc90611386611382828061128b565b8452565b6113a0611396602083018361129a565b6020850190610168565b6113ba6113b0604083018361129a565b6040850190610168565b6113d36113ca6060830183611358565b15156060850152565b6113ea6113e3608083018361128b565b6080850152565b6114036113fa60a0830183611358565b151560a0850152565b61141c61141360c0830183611358565b151560c0850152565b61143361142c60e083018361128b565b60e0850152565b61144c61144461010083018361128b565b610100850152565b61146761145d610120830183611358565b1515610120850152565b611482611478610140830183611358565b1515610140850152565b61149d611493610160830183611358565b1515610160850152565b6114b86114ae610180830183611358565b1515610180850152565b6114d16114c96101a083018361128b565b6101a0850152565b6101c0810190611258565b916101c0818503910152610b42565b9060a06115746100b793611509611505600083018361128b565b8552565b611523611519602083018361129a565b6020860190610168565b61153d611533604083018361129a565b6040860190610168565b61155461154d606083018361128b565b6060860152565b61156b611564608083018361128b565b6080860152565b8281019061128b565b910152565b9061014f90602061159e611594604084016112e08780611258565b948281019061129a565b910190610168565b9061014f91611579565b9035603e19368390030181121561007b570190565b8183529160200190816115db6020830284019490565b92836000925b8484106115f15750505050505090565b909192939495602061161d61161683856001950388526116118b886115b0565b6115a6565b9860200190565b9401940192949391906115e1565b97949661168b61168061014f9e9c9d9b966116b89a6116726116ad9b966116a0998f996116989a6116656101c08201946000830190610168565b6020818503910152610b42565b8d810360408f015291610b42565b9260608b0190610168565b88820360808a01526112c5565b9260a0870152565b84820360c0860152611367565b9460e08301906114eb565b6101a08185039101526115c5565b9593909192969b97988c9961173761172160009d9e9d610b8e8e6116f6346116f06108b586610771565b11610c17565b6117108d6117096107376107328761091b565b1415610c52565b600190600052602052604060002090565b611731610737610732600061091b565b14610c92565b6117ab61175261014f8d600190600052602052604060002090565b9b61175d338e610ce1565b61176a8a60018f01610ce1565b6117798d8760028a9201610b2b565b6117888d8c6003889201610d96565b6117958960048f01610ce1565b6117a28860058f01610ee4565b60098d01610eee565b6117b881600a8d01611104565b6117c58260148d0161117c565b8b8d6117e26108b561014f6117da6000610771565b945b85945090565b1015611824579d8d9e9d8d9e61180f8f8f611800601a611809920190565b918490866111b2565b9061122a565b600101919f9e6108b561014f6117e2926117dc565b50989c939b339b949a507fbceb4548d05c017ce520bf9023d555075a6a276982d5af65f2006273897964d599939861188c97959691959294938c939161187961187361186f34610771565b9f90565b9f610768565b9f61188360405190565b9c8d9c8d61162b565b0390a4565b61014f6101406107f1565b61014f60a06107f1565b6118ae61189c565b906020808080808660605b8152016000815201600081520160008152016000905250565b61014f6118a6565b61014f6101e06107f1565b6118ed6118da565b9081600081526020016000815260200160008152602001600081526020016000815260200160008152602001600081526020016000815260200160008152602001600081526020016000815260200160008152602001600081526020016000815260200160609052565b61014f6118e5565b61014f60c06107f1565b61197161195f565b906020808080808087600081520160006118b9565b61014f611969565b611996611891565b9060208080808080808080808b600081520160008152016060815201606081520160008152016119c46118d2565b81520160008152016119d4611957565b8152016119df611986565b8152016060905250565b61014f61198e565b9061017190610143565b80546000939291611a18611a0e83610988565b8085529360200190565b9160018116908115611a6a5750600114611a3157505050565b611a449192939450600052602060002090565b916000925b818410611a565750500190565b805484840152602090930192600101611a49565b92949550505060ff1916825215156020020190565b9061014f916119fb565b906100b7611aa392611a9a60405190565b93848092611a7f565b03836107cb565b80546000939291611abd611a0e83610988565b9160018116908115611a6a5750600114611ad657505050565b611ae99192939450600052602060002090565b916000925b818410611afb5750500190565b805484840152602090930192600101611aee565b9061014f91611aaa565b906100b7611aa392611b2a60405190565b93848092611b0f565b61014f9081565b61014f9054611b33565b61014f9060a01c610e4c565b61014f9054611b44565b906100b7611bc56003611b6b61189c565b94611b7c611b7882611a89565b8752565b611b92611b8b60018301611b3a565b6020880152565b611ba8611ba160028301611b3a565b6040880152565b611bbf611bb68383016106d7565b606088016119f1565b01611b50565b6001600160601b03166080840152565b61014f9060a01c5b60ff1690565b61014f9054611bd5565b61014f90611bdd565b61014f9054611bed565b61014f9060081c611bdd565b61014f9054611c00565b61014f9060101c611bdd565b61014f9054611c16565b61014f9060181c611bdd565b61014f9054611c2c565b906100b7611d9c6009611c536118da565b94611c60611b7882611b3a565b611c78611c6f600183016106d7565b602088016119f1565b611c90611c87600283016106d7565b604088016119f1565b611ca8611c9f60028301611be3565b15156060880152565b611cbe611cb760038301611b3a565b6080880152565b611cd6611ccd60048301611bf6565b151560a0880152565b611cee611ce560048301611c0c565b151560c0880152565b611d04611cfd60058301611b3a565b60e0880152565b611d1b611d1360068301611b3a565b610100880152565b611d34611d2a60078301611bf6565b1515610120880152565b611d4d611d4360078301611c0c565b1515610140880152565b611d66611d5c60078301611c22565b1515610160880152565b611d7f611d7560078301611c38565b1515610180880152565b611d96611d8e60088301611b3a565b6101a0880152565b01611a89565b6101c0840152565b906100b7611e0b6005611db561195f565b94611dc2611b7882611b3a565b611dd1611c6f600183016106d7565b611de0611c87600283016106d7565b611df6611def60038301611b3a565b6060880152565b611e05611cb760048301611b3a565b01611b3a565b60a0840152565b6001600160401b0381116107ec5760208091020190565b9061083361082e83611e12565b61014f60406107f1565b906100b7611e5e6001611e51611e36565b94610b8e611b7882611a89565b602084016119f1565b61014f90611e40565b90611e79825490565b611e8281611e29565b92611e966020850191600052602060002090565b6000915b838310611ea75750505050565b60026020600192611eb785611e67565b815201920192019190611e9a565b906100b7611f7e601a611ed6611891565b94611ee9611ee3826106d7565b876119f1565b611ef8611c6f600183016106d7565b611f07611ba160028301611a89565b611f16611def60038301611b19565b611f2e611f25600483016106d7565b608088016119f1565b611f44611f3d60058301611b5a565b60a0880152565b611f5a611f5360098301611b3a565b60c0880152565b611f69611cfd600a8301611c42565b611f78611d1360148301611da4565b01611e70565b610120840152565b61014f90611ec5565b611fbc61014f91611f9e6119e9565b50611710610b946000610b8e84600190600052602052604060002090565b611f8656fea2646970667358221220e32b9663c811b24ac60ac053de42d462e837618babc98fd059e97dd0e011a78e64736f6c63430008170033",
  "linkReferences": {},
  "deployedLinkReferences": {}
}