{
  "_format": "hh-sol-artifact-1",
  "contractName": "TweetDataRegistry",
  "sourceName": "contracts/TweetDataRegistry.sol",
  "abi": [
    {
      "inputs": [],
      "stateMutability": "nonpayable",
      "type": "constructor"
    },
    {
      "anonymous": false,
      "inputs": [
        {
          "indexed": true,
          "internalType": "bytes32",
          "name": "tweetHash",
          "type": "bytes32"
        },
        {
          "indexed": false,
          "internalType": "string",
          "name": "tweetURL",
          "type": "string"
        },
        {
          "indexed": true,
          "internalType": "address",
          "name": "submitter",
          "type": "address"
        },
        {
          "indexed": true,
          "internalType": "address",
          "name": "processor",
          "type": "address"
        },
        {
          "indexed": false,
          "internalType": "string",
          "name": "ipfsScreenshotCID",
          "type": "string"
        },
        {
          "indexed": false,
          "internalType": "string",
          "name": "filecoinRootCID",
          "type": "string"
        }
      ],
      "name": "TweetStored",
      "type": "event"
    },
    {
      "anonymous": false,
      "inputs": [
        {
          "indexed": true,
          "internalType": "bytes32",
          "name": "tweetHash",
          "type": "bytes32"
        },
        {
          "indexed": false,
          "internalType": "string",
          "name": "field",
          "type": "string"
        },
        {
          "indexed": false,
          "internalType": "string",
          "name": "newValue",
          "type": "string"
        }
      ],
      "name": "TweetUpdated",
      "type": "event"
    },
    {
      "inputs": [
        {
          "internalType": "string",
          "name": "",
          "type": "string"
        }
      ],
      "name": "cidToTweetHash",
      "outputs": [
        {
          "internalType": "bytes32",
          "name": "",
          "type": "bytes32"
        }
      ],
      "stateMutability": "view",
      "type": "function"
    },
    {
      "inputs": [
        {
          "internalType": "bytes32",
          "name": "tweetHash",
          "type": "bytes32"
        }
      ],
      "name": "exists",
      "outputs": [
        {
          "internalType": "bool",
          "name": "",
          "type": "bool"
        }
      ],
      "stateMutability": "view",
      "type": "function"
    },
    {
      "inputs": [
        {
          "internalType": "uint256",
          "name": "offset",
          "type": "uint256"
        },
        {
          "internalType": "uint256",
          "name": "limit",
          "type": "uint256"
        }
      ],
      "name": "getAllTweetHashes",
      "outputs": [
        {
          "internalType": "bytes32[]",
          "name": "",
          "type": "bytes32[]"
        }
      ],
      "stateMutability": "view",
      "type": "function"
    },
    {
      "inputs": [
        {
          "internalType": "string",
          "name": "ecosystem",
          "type": "string"
        }
      ],
      "name": "getEcosystemTweetCount",
      "outputs": [
        {
          "internalType": "uint256",
          "name": "",
          "type": "uint256"
        }
      ],
      "stateMutability": "view",
      "type": "function"
    },
    {
      "inputs": [],
      "name": "getTotalCount",
      "outputs": [
        {
          "internalType": "uint256",
          "name": "",
          "type": "uint256"
        }
      ],
      "stateMutability": "view",
      "type": "function"
    },
    {
      "inputs": [
        {
          "internalType": "bytes32",
          "name": "tweetHash",
          "type": "bytes32"
        }
      ],
      "name": "getTweet",
      "outputs": [
        {
          "components": [
            {
              "components": [
                {
                  "internalType": "bytes32",
                  "name": "tweetHash",
                  "type": "bytes32"
                },
                {
                  "internalType": "string",
                  "name": "tweetURL",
                  "type": "string"
                },
                {
                  "internalType": "string",
                  "name": "tweetId",
                  "type": "string"
                },
                {
                  "internalType": "string",
                  "name": "user",
                  "type": "string"
                },
                {
                  "internalType": "string",
                  "name": "handle",
                  "type": "string"
                },
                {
                  "internalType": "bool",
                  "name": "verified",
                  "type": "bool"
                }
              ],
              "internalType": "struct TweetDataRegistry.TweetIdentity",
              "name": "identity",
              "type": "tuple"
            },
            {
              "internalType": "string",
              "name": "content",
              "type": "string"
            },
            {
              "components": [
                {
                  "internalType": "uint256",
                  "name": "timestamp",
                  "type": "uint256"
                },
                {
                  "internalType": "uint256",
                  "name": "likes",
                  "type": "uint256"
                },
                {
                  "internalType": "uint256",
                  "name": "retweets",
                  "type": "uint256"
                },
                {
                  "internalType": "uint256",
                  "name": "replies",
                  "type": "uint256"
                },
                {
                  "internalType": "uint256",
                  "name": "controversyScore",
                  "type": "uint256"
                },
                {
                  "internalType": "uint256",
                  "name": "deletionLikelihood",
                  "type": "uint256"
                }
              ],
              "internalType": "struct TweetDataRegistry.TweetMetrics",
              "name": "metrics",
              "type": "tuple"
            },
            {
              "components": [
                {
                  "internalType": "string",
                  "name": "ipfsScreenshotCID",
                  "type": "string"
                },
                {
                  "internalType": "string",
                  "name": "ipfsDataCID",
                  "type": "string"
                },
                {
                  "internalType": "string",
                  "name": "filecoinRootCID",
                  "type": "string"
                },
                {
                  "internalType": "string",
                  "name": "filecoinDealId",
                  "type": "string"
                },
                {
                  "internalType": "string",
                  "name": "ecosystem",
                  "type": "string"
                }
              ],
              "internalType": "struct TweetDataRegistry.TweetStorage",
              "name": "storageData",
              "type": "tuple"
            },
            {
              "components": [
                {
                  "internalType": "address",
                  "name": "submitter",
                  "type": "address"
                },
                {
                  "internalType": "address",
                  "name": "processor",
                  "type": "address"
                },
                {
                  "internalType": "uint256",
                  "name": "processedAt",
                  "type": "uint256"
                },
                {
                  "internalType": "bool",
                  "name": "exists",
                  "type": "bool"
                }
              ],
              "internalType": "struct TweetDataRegistry.TweetMeta",
              "name": "meta",
              "type": "tuple"
            }
          ],
          "internalType": "struct TweetDataRegistry.TweetData",
          "name": "",
          "type": "tuple"
        }
      ],
      "stateMutability": "view",
      "type": "function"
    },
    {
      "inputs": [
        {
          "internalType": "string",
          "name": "cid",
          "type": "string"
        }
      ],
      "name": "getTweetByCID",
      "outputs": [
        {
          "components": [
            {
              "components": [
                {
                  "internalType": "bytes32",
                  "name": "tweetHash",
                  "type": "bytes32"
                },
                {
                  "internalType": "string",
                  "name": "tweetURL",
                  "type": "string"
                },
                {
                  "internalType": "string",
                  "name": "tweetId",
                  "type": "string"
                },
                {
                  "internalType": "string",
                  "name": "user",
                  "type": "string"
                },
                {
                  "internalType": "string",
                  "name": "handle",
                  "type": "string"
                },
                {
                  "internalType": "bool",
                  "name": "verified",
                  "type": "bool"
                }
              ],
              "internalType": "struct TweetDataRegistry.TweetIdentity",
              "name": "identity",
              "type": "tuple"
            },
            {
              "internalType": "string",
              "name": "content",
              "type": "string"
            },
            {
              "components": [
                {
                  "internalType": "uint256",
                  "name": "timestamp",
                  "type": "uint256"
                },
                {
                  "internalType": "uint256",
                  "name": "likes",
                  "type": "uint256"
                },
                {
                  "internalType": "uint256",
                  "name": "retweets",
                  "type": "uint256"
                },
                {
                  "internalType": "uint256",
                  "name": "replies",
                  "type": "uint256"
                },
                {
                  "internalType": "uint256",
                  "name": "controversyScore",
                  "type": "uint256"
                },
                {
                  "internalType": "uint256",
                  "name": "deletionLikelihood",
                  "type": "uint256"
                }
              ],
              "internalType": "struct TweetDataRegistry.TweetMetrics",
              "name": "metrics",
              "type": "tuple"
            },
            {
              "components": [
                {
                  "internalType": "string",
                  "name": "ipfsScreenshotCID",
                  "type": "string"
                },
                {
                  "internalType": "string",
                  "name": "ipfsDataCID",
                  "type": "string"
                },
                {
                  "internalType": "string",
                  "name": "filecoinRootCID",
                  "type": "string"
                },
                {
                  "internalType": "string",
                  "name": "filecoinDealId",
                  "type": "string"
                },
                {
                  "internalType": "string",
                  "name": "ecosystem",
                  "type": "string"
                }
              ],
              "internalType": "struct TweetDataRegistry.TweetStorage",
              "name": "storageData",
              "type": "tuple"
            },
            {
              "components": [
                {
                  "internalType": "address",
                  "name": "submitter",
                  "type": "address"
                },
                {
                  "internalType": "address",
                  "name": "processor",
                  "type": "address"
                },
                {
                  "internalType": "uint256",
                  "name": "processedAt",
                  "type": "uint256"
                },
                {
                  "internalType": "bool",
                  "name": "exists",
                  "type": "bool"
                }
              ],
              "internalType": "struct TweetDataRegistry.TweetMeta",
              "name": "meta",
              "type": "tuple"
            }
          ],
          "internalType": "struct TweetDataRegistry.TweetData",
          "name": "",
          "type": "tuple"
        }
      ],
      "stateMutability": "view",
      "type": "function"
    },
    {
      "inputs": [
        {
          "internalType": "string",
          "name": "tweetURL",
          "type": "string"
        }
      ],
      "name": "getTweetByURL",
      "outputs": [
        {
          "components": [
            {
              "components": [
                {
                  "internalType": "bytes32",
                  "name": "tweetHash",
                  "type": "bytes32"
                },
                {
                  "internalType": "string",
                  "name": "tweetURL",
                  "type": "string"
                },
                {
                  "internalType": "string",
                  "name": "tweetId",
                  "type": "string"
                },
                {
                  "internalType": "string",
                  "name": "user",
                  "type": "string"
                },
                {
                  "internalType": "string",
                  "name": "handle",
                  "type": "string"
                },
                {
                  "internalType": "bool",
                  "name": "verified",
                  "type": "bool"
                }
              ],
              "internalType": "struct TweetDataRegistry.TweetIdentity",
              "name": "identity",
              "type": "tuple"
            },
            {
              "internalType": "string",
              "name": "content",
              "type": "string"
            },
            {
              "components": [
                {
                  "internalType": "uint256",
                  "name": "timestamp",
                  "type": "uint256"
                },
                {
                  "internalType": "uint256",
                  "name": "likes",
                  "type": "uint256"
                },
                {
                  "internalType": "uint256",
                  "name": "retweets",
                  "type": "uint256"
                },
                {
                  "internalType": "uint256",
                  "name": "replies",
                  "type": "uint256"
                },
                {
                  "internalType": "uint256",
                  "name": "controversyScore",
                  "type": "uint256"
                },
                {
                  "internalType": "uint256",
                  "name": "deletionLikelihood",
                  "type": "uint256"
                }
              ],
              "internalType": "struct TweetDataRegistry.TweetMetrics",
              "name": "metrics",
              "type": "tuple"
            },
            {
              "components": [
                {
                  "internalType": "string",
                  "name": "ipfsScreenshotCID",
                  "type": "string"
                },
                {
                  "internalType": "string",
                  "name": "ipfsDataCID",
                  "type": "string"
                },
                {
                  "internalType": "string",
                  "name": "filecoinRootCID",
                  "type": "string"
                },
                {
                  "internalType": "string",
                  "name": "filecoinDealId",
                  "type": "string"
                },
                {
                  "internalType": "string",
                  "name": "ecosystem",
                  "type": "string"
                }
              ],
              "internalType": "struct TweetDataRegistry.TweetStorage",
              "name": "storageData",
              "type": "tuple"
            },
            {
              "components": [
                {
                  "internalType": "address",
                  "name": "submitter",
                  "type": "address"
                },
                {
                  "internalType": "address",
                  "name": "processor",
                  "type": "address"
                },
                {
                  "internalType": "uint256",
                  "name": "processedAt",
                  "type": "uint256"
                },
                {
                  "internalType": "bool",
                  "name": "exists",
                  "type": "bool"
                }
              ],
              "internalType": "struct TweetDataRegistry.TweetMeta",
              "name": "meta",
              "type": "tuple"
            }
          ],
          "internalType": "struct TweetDataRegistry.TweetData",
          "name": "",
          "type": "tuple"
        }
      ],
      "stateMutability": "view",
      "type": "function"
    },
    {
      "inputs": [
        {
          "internalType": "string",
          "name": "ecosystem",
          "type": "string"
        },
        {
          "internalType": "uint256",
          "name": "offset",
          "type": "uint256"
        },
        {
          "internalType": "uint256",
          "name": "limit",
          "type": "uint256"
        }
      ],
      "name": "getTweetsByEcosystem",
      "outputs": [
        {
          "internalType": "bytes32[]",
          "name": "",
          "type": "bytes32[]"
        }
      ],
      "stateMutability": "view",
      "type": "function"
    },
    {
      "inputs": [
        {
          "internalType": "string",
          "name": "handle",
          "type": "string"
        },
        {
          "internalType": "uint256",
          "name": "offset",
          "type": "uint256"
        },
        {
          "internalType": "uint256",
          "name": "limit",
          "type": "uint256"
        }
      ],
      "name": "getTweetsByUser",
      "outputs": [
        {
          "internalType": "bytes32[]",
          "name": "",
          "type": "bytes32[]"
        }
      ],
      "stateMutability": "view",
      "type": "function"
    },
    {
      "inputs": [
        {
          "internalType": "string",
          "name": "handle",
          "type": "string"
        }
      ],
      "name": "getUserTweetCount",
      "outputs": [
        {
          "internalType": "uint256",
          "name": "",
          "type": "uint256"
        }
      ],
      "stateMutability": "view",
      "type": "function"
    },
    {
      "inputs": [],
      "name": "owner",
      "outputs": [
        {
          "internalType": "address",
          "name": "",
          "type": "address"
        }
      ],
      "stateMutability": "view",
      "type": "function"
    },
    {
      "inputs": [
        {
          "components": [
            {
              "internalType": "bytes32",
              "name": "tweetHash",
              "type": "bytes32"
            },
            {
              "internalType": "string",
              "name": "tweetURL",
              "type": "string"
            },
            {
              "internalType": "string",
              "name": "tweetId",
              "type": "string"
            },
            {
              "internalType": "string",
              "name": "user",
              "type": "string"
            },
            {
              "internalType": "string",
              "name": "handle",
              "type": "string"
            },
            {
              "internalType": "bool",
              "name": "verified",
              "type": "bool"
            }
          ],
          "internalType": "struct TweetDataRegistry.TweetIdentity",
          "name": "identity",
          "type": "tuple"
        },
        {
          "internalType": "string",
          "name": "content",
          "type": "string"
        },
        {
          "components": [
            {
              "internalType": "uint256",
              "name": "timestamp",
              "type": "uint256"
            },
            {
              "internalType": "uint256",
              "name": "likes",
              "type": "uint256"
            },
            {
              "internalType": "uint256",
              "name": "retweets",
              "type": "uint256"
            },
            {
              "internalType": "uint256",
              "name": "replies",
              "type": "uint256"
            },
            {
              "internalType": "uint256",
              "name": "controversyScore",
              "type": "uint256"
            },
            {
              "internalType": "uint256",
              "name": "deletionLikelihood",
              "type": "uint256"
            }
          ],
          "internalType": "struct TweetDataRegistry.TweetMetrics",
          "name": "metrics",
          "type": "tuple"
        },
        {
          "components": [
            {
              "internalType": "string",
              "name": "ipfsScreenshotCID",
              "type": "string"
            },
            {
              "internalType": "string",
              "name": "ipfsDataCID",
              "type": "string"
            },
            {
              "internalType": "string",
              "name": "filecoinRootCID",
              "type": "string"
            },
            {
              "internalType": "string",
              "name": "filecoinDealId",
              "type": "string"
            },
            {
              "internalType": "string",
              "name": "ecosystem",
              "type": "string"
            }
          ],
          "internalType": "struct TweetDataRegistry.TweetStorage",
          "name": "storageData",
          "type": "tuple"
        },
        {
          "internalType": "address",
          "name": "submitter",
          "type": "address"
        }
      ],
      "name": "storeTweet",
      "outputs": [],
      "stateMutability": "nonpayable",
      "type": "function"
    },
    {
      "inputs": [
        {
          "internalType": "address",
          "name": "newOwner",
          "type": "address"
        }
      ],
      "name": "transferOwnership",
      "outputs": [],
      "stateMutability": "nonpayable",
      "type": "function"
    },
    {
      "inputs": [],
      "name": "tweetCount",
      "outputs": [
        {
          "internalType": "uint256",
          "name": "",
          "type": "uint256"
        }
      ],
      "stateMutability": "view",
      "type": "function"
    },
    {
      "inputs": [
        {
          "internalType": "uint256",
          "name": "",
          "type": "uint256"
        }
      ],
      "name": "tweetHashes",
      "outputs": [
        {
          "internalType": "bytes32",
          "name": "",
          "type": "bytes32"
        }
      ],
      "stateMutability": "view",
      "type": "function"
    },
    {
      "inputs": [
        {
          "internalType": "string",
          "name": "",
          "type": "string"
        },
        {
          "internalType": "uint256",
          "name": "",
          "type": "uint256"
        }
      ],
      "name": "tweetsByEcosystem",
      "outputs": [
        {
          "internalType": "bytes32",
          "name": "",
          "type": "bytes32"
        }
      ],
      "stateMutability": "view",
      "type": "function"
    },
    {
      "inputs": [
        {
          "internalType": "string",
          "name": "",
          "type": "string"
        },
        {
          "internalType": "uint256",
          "name": "",
          "type": "uint256"
        }
      ],
      "name": "tweetsByUser",
      "outputs": [
        {
          "internalType": "bytes32",
          "name": "",
          "type": "bytes32"
        }
      ],
      "stateMutability": "view",
      "type": "function"
    },
    {
      "inputs": [
        {
          "internalType": "bytes32",
          "name": "tweetHash",
          "type": "bytes32"
        },
        {
          "internalType": "string",
          "name": "ipfsScreenshotCID",
          "type": "string"
        },
        {
          "internalType": "string",
          "name": "ipfsDataCID",
          "type": "string"
        },
        {
          "internalType": "string",
          "name": "filecoinRootCID",
          "type": "string"
        },
        {
          "internalType": "string",
          "name": "filecoinDealId",
          "type": "string"
        }
      ],
      "name": "updateCIDs",
      "outputs": [],
      "stateMutability": "nonpayable",
      "type": "function"
    }
  ],
  "bytecode": "0x6080604052346200002657620000146200009a565b604051611ddd620000aa8239611ddd90f35b600080fd5b620000419062000044906001600160a01b031682565b90565b6001600160a01b031690565b62000041906200002b565b620000419062000050565b906200007a6200004162000096926200005b565b82546001600160a01b0319166001600160a01b03919091161790565b9055565b620000a733600062000066565b56fe6080604052600436101561001257600080fd5b60003560e01c80630543182014610142578063128012851461013d5780631405d0cf1461013857806319c0d81f146101335780632b98a1ec1461012e57806335eb2a651461012957806338a699a4146101245780633a95bc071461011f57806343df2d8d1461011a5780634a7782b3146101155780634f2fcd36146101105780635258468c1461010b57806356d42bb3146101065780635fcb56fa146101015780638da5cb5b146100fc5780639b4a888d146100f7578063b48a1064146100f2578063cb489b83146100ed5763f2fde38b0361015057610b16565b610ae6565b610abc565b610aa0565b610a51565b610a0c565b6109b5565b610999565b610977565b6108c4565b610891565b610712565b6106e5565b6106c9565b61069e565b6105cd565b6104f0565b61046d565b6103cf565b805b0361015057565b600080fd5b9050359061016282610147565b565b906020828203126101505761017891610155565b90565b60005b83811061018e5750506000910152565b818101518382015260200161017e565b6101bf6101c86020936101d2936101b3815190565b80835293849260200190565b9586910161017b565b601f01601f191690565b0190565b80518252906101789060a08061023a61022861021661020460c0870160208a015188820360208a015261019e565b6040890151878203604089015261019e565b6060880151868203606088015261019e565b6080870151858203608087015261019e565b9401511515910152565b80518252610162919060a090819061026160208201516020860152565b61027060408201516040860152565b61027f60608201516060860152565b61028e60808201516080860152565b0151910152565b6101789160806102f36102e16102cf6102bd60a086016000880151878203600089015261019e565b6020870151868203602088015261019e565b6040860151858203604087015261019e565b6060850151848203606086015261019e565b92015190608081840391015261019e565b6001600160a01b031690565b80516001600160a01b03168252610162919060609081906020818101516001600160a01b03169085015261034960408201516040860152565b01511515910152565b906101789061012060806103b361038e61037c6101a08601600089015187820360008901526101d6565b6020880151868203602088015261019e565b6103a060408801516040870190610244565b6060870151858203610100870152610295565b940151910190610310565b602080825261017892910190610352565b34610150576103f66103ea6103e5366004610164565b610fae565b604051918291826103be565b0390f35b634e487b7160e01b600052603260045260246000fd5b80548210156104335761042a600191600052602060002090565b91020190600090565b6103fa565b610178916008021c81565b906101789154610438565b600380545b821015610150576101789161046791610410565b90610443565b34610150576103f6610488610483366004610164565b61044e565b6040519182918290815260200190565b909182601f83011215610150578135916001600160401b03831161015057602001926001830284011161015057565b906020828203126101505781356001600160401b038111610150576104ec9201610498565b9091565b34610150576103f66104886105063660046104c7565b90611044565b908160c09103126101505790565b908160a09103126101505790565b6001600160a01b038116610149565b9050359061016282610528565b919091610140818403126101505780356001600160401b038111610150578361056e91830161050c565b9260208201356001600160401b038111610150578161058e918401610498565b92909361059e836040840161050c565b92610100830135906001600160401b038211610150576105c38161017893860161051a565b9361012001610537565b34610150576105ec6105e0366004610544565b949390939291926118b5565b604051005b919091606081840312610150578035916001600160401b0383116101505761061e84610178948401610498565b93909461062e8160208601610155565b93604001610155565b90610657610650610646845190565b8084529260200190565b9260200190565b9060005b8181106106685750505090565b90919261068561067e6001928651815260200190565b9460200190565b92910161065b565b602080825261017892910190610637565b34610150576103f66106bd6106b43660046105f1565b929190916118c3565b6040519182918261068d565b34610150576103f66103ea6106df3660046104c7565b906118ed565b34610150576103f66107006106fb366004610164565b61195a565b60405191829182901515815260200190565b34610150576103f66104886107283660046104c7565b9061197f565b634e487b7160e01b600052604160045260246000fd5b90601f01601f191681019081106001600160401b0382111761076557604052565b61072e565b9061016261077760405190565b9283610744565b6001600160401b03811161076557602090601f01601f19160190565b90826000939282370152565b909291926107bb6107b68261077e565b61076a565b93818552602085019082840111610150576101629261079a565b9080601f8301121561015057816020610178933591016107a6565b9190604083820312610150578235906001600160401b0382116101505761081c816101789386016107d5565b93602001610155565b6101d261083d92602092610837815190565b94859290565b9384910161017b565b6108566101d29160209493610825565b918252565b61087061086760405190565b92839283610846565b03902090565b6101789161085b565b61088a906004610876565b8054610453565b34610150576103f66104886108a73660046107f0565b9061087f565b600091031261015057565b61017860006001610443565b34610150576108d43660046108ad565b6103f66104886108b8565b60a081830312610150576108f38282610155565b9260208201356001600160401b0381116101505783610913918401610498565b92909360408201356001600160401b0381116101505781610935918401610498565b92909360608201356001600160401b0381116101505783610957918401610498565b92909360808201356001600160401b038111610150576104ec9201610498565b34610150576105ec61098a3660046108df565b97969096959195949294611b4e565b34610150576103f66103ea6109af3660046104c7565b90611b5f565b34610150576109c53660046108ad565b6103f6610488611ba2565b906020828203126101505781356001600160401b0381116101505761017892016107d5565b61017890610a07600691600092610876565b610443565b34610150576103f6610488610a223660046109d0565b6109f5565b610178916008021c6001600160a01b031690565b906101789154610a27565b610178600080610a3b565b3461015057610a613660046108ad565b6103f6610a6c610a46565b604051918291826001600160a01b03909116815260200190565b9190604083820312610150576101789061081c8185610155565b34610150576103f66106bd610ab6366004610a86565b90611bac565b34610150576103f66106bd610ad23660046105f1565b92919091611bb8565b61088a906005610876565b34610150576103f6610488610afc3660046107f0565b90610adb565b906020828203126101505761017891610537565b34610150576105ec610b29366004610b02565b611c63565b61017860a061076a565b61017860c061076a565b610b4a610b38565b906020808080808087600081520160608152016060815201606081520160605b8152016000905250565b905250565b610178610b42565b610b89610b38565b9060208080808080876000815201600081520160005b81520160008152016000610b6a565b610178610b81565b610bbe610b2e565b906020808080808660608152016060815201606081520160608152016060905250565b610178610bb6565b610178608061076a565b610bfb610be9565b906020808080856000610b9f565b610178610bf3565b610c19610b2e565b9060208080808086610c29610b79565b8152016060815201610c39610bae565b815201610c44610be1565b815201610b74610c09565b610178610c11565b15610c5e57565b60405162461bcd60e51b815260206004820152600f60248201526e151dd9595d081b9bdd08199bdd5b99608a1b6044820152606490fd5b6101789081565b6101789054610c95565b634e487b7160e01b600052602260045260246000fd5b9060016002830492168015610cdc575b6020831014610cd757565b610ca6565b91607f1691610ccc565b80546000939291610d03610cf983610cbc565b8085529360200190565b9160018116908115610d555750600114610d1c57505050565b610d2f9192939450600052602060002090565b916000925b818410610d415750500190565b805484840152602090930192600101610d34565b92949550505060ff1916825215156020020190565b9061017891610ce6565b90610162610d8e92610d8560405190565b93848092610d6a565b0383610744565b90610162610e176005610da6610b38565b94610db7610db382610c9c565b8752565b610dcd610dc660018301610d74565b6020880152565b610de3610ddc60028301610d74565b6040880152565b610df9610df260038301610d74565b6060880152565b610e0f610e0860048301610d74565b6080880152565b015460ff1690565b151560a0840152565b90610162610e806005610e31610b38565b94610e3e610db382610c9c565b610e4d610dc660018301610c9c565b610e5c610ddc60028301610c9c565b610e6b610df260038301610c9c565b610e7a610e0860048301610c9c565b01610c9c565b60a0840152565b90610162610ed86004610e98610b2e565b94610ea5610db382610d74565b610eb4610dc660018301610d74565b610ec3610ddc60028301610d74565b610ed2610df260038301610d74565b01610d74565b6080840152565b61017890610304565b6101789054610edf565b90610162610f4b6003610f03610be9565b94610f1d610f1082610ee8565b6001600160a01b03168752565b610f3c610f2c60018301610ee8565b6001600160a01b03166020880152565b610e0f610ddc60028301610c9c565b15156060840152565b90610162610ed86012610f65610b2e565b94610f72610db382610d95565b610f81610dc660068301610d74565b610f90610ddc60078301610e20565b610f9f610df2600d8301610e87565b01610ef2565b61017890610f54565b610ffc61017891610fbd610c4f565b50610feb610fe660036012610fdd85600290600052602052604060002090565b01015460ff1690565b610c57565b600290600052602052604060002090565b610fa5565b90916101d2908390809361079a565b61085690602094936101d293611001565b90916108709061103060405190565b93849384611010565b909161017892611021565b61105d9061017892611054600090565b50906004611039565b5490565b1561106857565b60405162461bcd60e51b815260206004820152600e60248201526d139bdd08185d5d1a1bdc9a5e995960921b6044820152606490fd5b9061016295949392916110ce336110c86110bb6103046000610ee8565b916001600160a01b031690565b14611061565b61160d565b3561017881610147565b156110e457565b60405162461bcd60e51b8152602060048201526014602482015273151dd9595d08185b1c9958591e481cdd1bdc995960621b6044820152606490fd5b903590601e19368290030182121561015057018035906001600160401b038211610150576020019136829003831361015057565b6101786101786101789290565b1561116857565b60405162461bcd60e51b8152602060048201526011602482015270125b9d985b1a59081d1dd9595d08155493607a1b6044820152606490fd5b90600019905b9181191691161790565b906111bf6101786111c69290565b82546111a1565b9055565b9160001960089290920291821b911b6111a7565b91906111ef6101786111c693611154565b9083546111ca565b610162916000916111de565b81811061120e575050565b8061121c60006001936111f7565b01611203565b9190601f811161123157505050565b61124361016293600052602060002090565b906020601f840181900483019310611265575b6020601f909101040190611203565b9091508190611256565b91906001600160401b038211610765576112938261128d8554610cbc565b85611222565b600090601f83116001146112ce576111c69291600091836112c3575b5050600019600883021c1916906002021790565b0135905038806112af565b601f198316916112e385600052602060002090565b9260005b81811061132157509160029391856001969410611308575b50505002019055565b0135600019601f84166008021c191690553880806112ff565b919360206001819287870135815501950192016112e7565b90610162929161126f565b801515610149565b3561017881611344565b9060ff906111a7565b9061136f6101786111c692151590565b8254611356565b61016291906113f69060a09060059061139881611392876110d3565b906111b1565b6113b2600182016113ac6020880188611120565b91611339565b6113c6600282016113ac6040880188611120565b6113da600382016113ac6060880188611120565b6113ee600482016113ac6080880188611120565b01920161134c565b9061135f565b9061016291611376565b906111bf6101786111c692611154565b61016291906114309060a0906005906114368185876110d3565b90611406565b61144960018201611430602088016110d3565b61145c60028201611430604088016110d3565b61146f60038201611430606088016110d3565b61148260048201611430608088016110d3565b0192016110d3565b9061016291611416565b61016291906113ac906004906114ac81848680611120565b6114c0600182016113ac6020870187611120565b6114d4600282016113ac6040870187611120565b6114e8600382016113ac6060870187611120565b01916080810190611120565b9061016291611494565b906001600160a01b03906111a7565b61017890610304906001600160a01b031682565b6101789061150d565b61017890611521565b906115436101786111c69261152a565b82546114fe565b91906111ef6101786111c69390565b9081549168010000000000000000831015610765578261158191600161016295018155610410565b9061154a565b634e487b7160e01b600052601160045260246000fd5b60001981146115ac5760010190565b611587565b91906101c8816115c8816101d29560209181520190565b809561079a565b949290936115f161017897956115ff94606089019189830360008b01526115b1565b9186830360208801526115b1565b9260408185039101526115b1565b939493926116ef926116b091906116a79061165061164b61164760036012610fdd60026116398e6110d3565b600052602052604060002090565b1590565b6110dd565b61168261166b6116666104ec60208b018b611120565b905090565b61167c6116786000611154565b9190565b11611161565b61169361017860026116398a6110d3565b9461169e88876113fc565b60068601611339565b6007830161148a565b6116bd85600d83016114f4565b6116ca8460128301611533565b6116d73360138301611533565b6116e44260148301611406565b60019060150161135f565b61170460035b6116fe836110d3565b90611559565b6117226116f5610178600461171c6080860186611120565b91611039565b61173a6116f5610178600561171c6080880188611120565b61174a6116666104ec8580611120565b6117576116786000611154565b11611895575b6117706116666104ec6020860186611120565b61177d6116786000611154565b11611872575b6117966116666104ec6040860186611120565b6117a36116786000611154565b1161184a575b6117c56117be6117b96001610c9c565b61159d565b6001611406565b6117dc6117d1826110d3565b916020810190611120565b339392916118456117fd6117f08880611120565b9190986040810190611120565b9161183261182c61182c7fff7bdc81e4f9d0d2a658abf4471580b7942819b2f36c1e77e221ff428e660eac9990565b9961152a565b9961183c60405190565b968796876115cf565b0390a4565b61186d611856826110d3565b611868600661171c6040880188611120565b6111b1565b6117a9565b61189061187e826110d3565b611868600661171c6020880188611120565b611783565b6118b06118a1826110d3565b611868600661171c8780611120565b61175d565b90610162959493929161109e565b6118d76118dd916101789593611054606090565b92919290565b611cee565b909161017892611001565b61017891611928610ffc92611900610c4f565b5061191961190d60405190565b938492602084016118e2565b60208201810382520382610744565b61193a611933825190565b9160200190565b20610feb610fe660036012610fdd85600290600052602052604060002090565b60036012610fdd6101789361196d600090565b50600290600052602052604060002090565b61105d906101789261198f600090565b50906005611039565b9061016298979695949392916119b8336110c86110bb6103046000610ee8565b97949390959291956119df610fe660036012610fdd8d600290600052602052604060002090565b6119f76101788a600290600052602052604060002090565b9680611a066116786000611154565b11611b27575b50819050611a1d6116786000611154565b11611b00575b50819050611a346116786000611154565b11611ad9575b50819050611a4b6116786000611154565b11611ac3575b505050611a7c7f7f6312a222ccd1c5a5ff306804b7bf1c89c7ff24d5877741898ff2628cddccc79190565b90611a8660405190565b6040808252600490820152634349447360e01b6060820152608060208201819052600790820152661d5c19185d195960ca1b60a082015260c090a2565b611ad1929091601001611339565b388080611a51565b611af99161186890611aef8382600f8901611339565b8792906006611039565b3880611a3a565b611b209161186890611b168382600e8b01611339565b8992906006611039565b3880611a23565b611b479161186890611b3d8382600d8d01611339565b8b92906006611039565b3880611a0c565b906101629897969594939291611998565b611b83611b7e610ffc9261017894611b75610c4f565b50906006611039565b610c9c565b610feb610fe660036012610fdd85600290600052602052604060002090565b6101786001610c9c565b61017891906003611cee565b6118d76118dd91610178959361198f606090565b61016290611be4336110c86110bb6103046000610ee8565b611c3d565b6103046101786101789290565b61017890611be9565b15611c0657565b60405162461bcd60e51b815260206004820152600f60248201526e496e76616c6964206164647265737360881b6044820152606490fd5b61016290611c5c81611c556110bb6103046000611bf6565b1415611bff565b6000611533565b61016290611bcc565b919082018092116115ac57565b6001600160401b0381116107655760208091020190565b906108566107b683611c79565b369037565b90610162611caf83611c90565b92602080611cbd8693611c79565b9201910390611c9d565b919082039182116115ac57565b90611cdd825190565b811015610433576020809102010190565b90929091611cfc9084611c6c565b9182611d0c611678610178845490565b11611d97575b83611d21611678610178845490565b1015611d8657611d39611d348585611cc7565b611ca2565b91845b84811015611d7d57611d7890611d72611d586104678387610410565b611d6f8791611d68858c90611cc7565b9092611cd4565b52565b60010190565b611d3c565b50935050905090565b50915050610178611d346000611154565b9150611da1825490565b91611d1256fea2646970667358221220eb5f90dcd67f5bd80c62e43eca43f379c86a3eadbff03ee0d2b653213fe7b9d864736f6c63430008170033",
  "linkReferences": {},
  "deployedLinkReferences": {}
}